:100000000C9474010C94BB010C94BB010C94BB01C7
:100010000C94BB010C94BB010C94BB010C94BB0170
:100020000C94BB010C94BB010C94460D0C94180E5F
:100030000C94091C0C94BB010C94BB010C94BB01E7
:100040000C94BB010C94BB010C94BB010C94BB0140
:100050000C94BB010C94751B0C94BB010C94BB015C
:100060000C94BB010C94BB010C94BB010C94BB0120
:100070000C94BB010C94BB010C94BB010C94BB0110
:100080000C94BB010C94BB010C94BB010C94BB0100
:100090000C94BB010C94BB010C94BB010C94BB01F0
:1000A0000C94BB010C94BB010C94BB018603800330
:1000B0007C03770371036F036D036F037103770391
:1000C0007C03800386038B038B038B038B038B03DF
:1000D0008B038B03850EA70E950FA70E950FEC0EC5
:1000E0000F0F950F640F770FB911B911E611E611D3
:1000F00041125F1261146114811261147C137C132C
:100100003714611461144D14291E1F2021223C4113
:1001100023242526272A2B141A0815173D421C18BC
:100120000C12132F39041607090A80800B0D0E0FCD
:100130003328791D1B0619053E4311103637387DCB
:10014000787B7A3A3B80808080403F7E7F7C804E07
:10015000494C4B4A4D504F522C5851801203450088
:10016000720067006F0044006F006E0065000000C1
:1001700012034B002E0054002E0045002E004300B9
:100180002E0000000403090409026D00040100A010
:10019000FA09040000010301010009211101000115
:1001A0002240000705810308000109040100010342
:1001B000010200092111010001224D0007058203FF
:1001C00008000A09040200010300000009211101CE
:1001D0000001221B000705830308000A090403002D
:1001E0000103000000092111010001223900070567
:1001F00084032000011201100100000008091228E8
:100200002301030102000105010906A101050719E7
:10021000E029E715002501950875018102050819F7
:100220000129059505750191029501750391010557
:1002300007190029F71500250195F875018102C0FD
:10024000050C0901A1018503160100269C021A0173
:10025000002A9C02751095018100C005010902A1C8
:10026000010901A1000509190129051500250195BC
:1002700005750181029501750381010501093009A8
:10028000311581257F95027508810609381581256C
:100290007F950175088106050C0A38021581257FB6
:1002A000950175088106C0C005010906A101050771
:1002B00019E029E7150025019508750181029501CE
:1002C0007508810105081901290595057501910237
:1002D0009501750391010507190029FF150026FFF7
:1002E00000950675088100C011241FBECFEFDAE02B
:1002F000DEBFCDBF04B603FE27C0809111039091ED
:100300001203A0911303B09114038730904BA740C0
:10031000B04BD1F4109211031092120310921303F8
:100320001092140314BE84B7877F84BF0FB6F8946D
:10033000A8958091600088618093600010926000B1
:100340000FBEE0E0F8E3099511E0A0E0B1E0E6E6D9
:10035000F4E402C005900D92AC33B107D9F723E065
:10036000ACE3B1E001C01D92A131B207E1F70E94F8
:10037000E9080C9431220C9400000FB680959AE0A5
:10038000F8947AE57A95F1F708F02E9A08F42E9809
:1003900086959A95B1F70FBE08952EE0929FF001D1
:1003A0001124E80FF11DE85FFE4F9491892F8F70A3
:1003B00092959F700895CF93C82FCB010E94CD01D5
:1003C000282F30E080E1989FA0011124422B532B6D
:1003D0004038510519F480E090E021C09770E92F72
:1003E000F0E088E0C89FE00DF11D112484E0EE0FDD
:1003F000FF1F8A95E1F7E20FF31FEE0FFF1FE0509A
:10040000F84925913491C9018B7F833E910531F4E0
:1004100080913D01882311F020E030E0C901CF91A7
:100420000895FC016230A9F128F4662361F061307F
:10043000C9F00895643009F454C008F440C0653030
:1004400009F45EC008958281882379F00E94981A89
:10045000827231F00E94981A80FD02C085E312C0BA
:1004600089E210C08281811106C080913C010E9406
:1004700047110C94D51A0E94981A82FF02C08DE38E
:1004800001C081E280933C0180913C010E94EF1009
:10049000F0CF8281882399F00E94981A80FF0DC0C6
:1004A0000E947E142FEF80E792E021508040904020
:1004B000E1F700C000000E949B1B0C947E14828117
:1004C000882339F190913D0181E0892780933D0196
:1004D000882319F081E090E002C080E090E00C9465
:1004E000880582818823A9F08091C401882321F0A6
:1004F0001092C4012B98089581E08093C40108955F
:100500008281882331F09091BB0181E0892780931B
:10051000BB01089580B38F7080BB81B38F7081BBA6
:1005200084B1897F84B985B1897F85B90C94F3063C
:10053000EF92FF920F931F93CF93DF9380E885BFD5
:1005400085BF0E94FE1A8FE99FE00197F1F700C076
:1005500000000E94071B90933F0180933E010E9480
:100560008A026E98769A8AB183768AB98BB18C6941
:100570008BB93E98469A24982C9A0E94280781E0CD
:1005800080934001C3EAD1E086E9E82E81E0F82EAD
:1005900002E411E0199219921092A2010E94071B25
:1005A000F701819391937F0180E090E0F801E80FDB
:1005B000F91F108201968E309105C1F7025F1F4F1F
:1005C000F1E0CF3ADF0731F7DF91CF911F910F9123
:1005D000FF90EF900895AF92BF92CF92DF92EF928B
:1005E000FF920F931F93CF93DF9380913E019091E1
:1005F0003F010E941F1B883E934040F00E94071B52
:1006000090933F0180933E010E940E07E091A2016A
:10061000F0E0EE0FFF1FEA56FE4F808191810E94AD
:100620001F1B8C01892B09F4D6C0C091A201D0E018
:100630000E94071BCC0FDD1FCA56DE4F99838883AB
:100640008091A201823099F038F4882369F08130DA
:10065000B1F4859A8D9813C0843079F058F08530C4
:1006600071F4229A2A980BC0849A8C9808C0869AB2
:100670008E9805C0879A8F9802C0219A29980E9467
:10068000F70630EA3A95F1F70E945407E12CF12C75
:10069000AA24A3942DE0B22ED02E3EE0C32E01E07A
:1006A00010E0C091A201D0E0309141018E2D90E088
:1006B000FC01313051F43797E730F10520F4EA5A64
:1006C000FF4F0C94FD218E2D28C03197ED30F105A0
:1006D00020F4E35AFF4F0C94FD2183B10EC08CB17E
:1006E00007C089B18095881F8827881F18C086B1E8
:1006F00086FB882780F908C089B18295817004C083
:1007000089B182FB882780F98A2509C089B183FBDA
:10071000882780F9F9CF8B2D8E190E94BE062D2DCA
:10072000CC9EF001CD9EF00D1124EE0DFF1DEE5B71
:10073000FE4F9081990F982B2150E1F7CC9EF0014C
:10074000CD9EF00D1124EE0DFF1DEE5BFE4F90834C
:10075000E091A201F0E098010E2C02C0220F331F9D
:100760000A94E2F7892F8F71833061F028F488238F
:10077000B9F0813031F506C08F3021F08F3111F0A2
:100780008730F9F4EE0FFF1FED55FE4F8081918108
:10079000A90148235923452BA1F4282B392B0FC03D
:1007A000EE0FFF1FED55FE4F80819181A901482377
:1007B0005923452B31F02095309528233923318357
:1007C00020838FEFE81AF80A9EE0E916F10409F099
:1007D00068CF0E948A028091A2018F5F863018F450
:1007E0008093A20102C01092A2018091400188234F
:1007F00009F466C08091A201811162C08AE090E094
:100800000E941722823018F48093410102C0109296
:100810004101C091AD01D091AE01C231D10521F0AD
:10082000C11522E1D20759F461E0809141018111A3
:1008300060E0609341018AE090E00E941F221092E4
:10084000400120E08091410190E0422F50E0841768
:100850009507BCF0209A28983FEF85EA9EE031503A
:1008600080409040E1F700C00000289A3FEF83EC01
:1008700099E0315080409040E1F700C000002F5FC8
:10088000E1CFC231D10521F0C11522E1D207C1F477
:100890003FEF89E698E1315080409040E1F700C099
:1008A0000000C231D10519F0C115D24149F43FEF22
:1008B00089E698E1315080409040E1F700C00000A7
:1008C00081E0DF91CF911F910F91FF90EF90DF902A
:1008D000CF90BF90AF900895E82FF0E0EE0FFF1F8C
:1008E000ED55FE4F808191810895089584B1816214
:1008F00084B9289A2D98559A5D9A84B1886484B9F0
:1009000085B1877D85B9A0EBB1E080E0E82FE69561
:10091000F0E0E659FF4FFE2FEE27282F217030E040
:10092000E20FF31F459154914D938F5F883071F71B
:100930008091B201843119F481E08093AF01089570
:10094000823079F028F4882341F0813041F0089515
:10095000833069F0843069F008952D9A08952898BD
:1009600008958091AF01811109C02E9A08955D9874
:1009700008958091AF01811101C02B9A08958230B2
:1009800079F028F4882341F0813041F008958330D4
:1009900069F0843069F008952D980895289A089593
:1009A0008091AF01811109C02E9808955D9A089534
:1009B0008091AF01811101C02B980895EF92FF92B1
:1009C0000F931F93CF9390EBE92E91E0F92EC0E0A7
:1009D000082F10E0F70191917F0180EF890F83309C
:1009E00078F4980102C0359527958A95E2F720FFA3
:1009F00004C08C2F0E94A00403C08C2F0E94BF044F
:100A0000CF5FC83039F7CF911F910F91FF90EF90D2
:100A100008958F929F92AF92BF92EF92FF920F93A1
:100A20001F93CF934B015C0100EB11E0C0E0EE247B
:100A3000E394F12CF80181918F019FEF980F97308B
:100A4000D0F4970102C0220F331F8A95E2F7C90143
:100A5000092E000CAA0BBB0B88219921AA21BB21CE
:100A6000892B8A2B8B2B21F08C2F0E94A00403C092
:100A70008C2F0E94BF04CF5FC830E1F6CF911F9149
:100A80000F91FF90EF90BF90AF909F908F9008953F
:100A90008F929F92AF92BF92EF92FF920F931F930C
:100AA000CF934B015C0100EB11E0C0E0EE24E39436
:100AB000F12CF80181918F0197EF980F9730D8F4BE
:100AC0008850970102C0220F331F8A95E2F7C901AF
:100AD000092E000CAA0BBB0B88219921AA21BB214E
:100AE000892B8A2B8B2B21F08C2F0E94A00403C012
:100AF0008C2F0E94BF04CF5FC830D9F6CF911F91D1
:100B00000F91FF90EF90BF90AF909F908F900895BE
:100B1000EF92FF920F931F93CF9390EBE92E91E00A
:100B2000F92EC0E0082F10E0F70191917F018BEEC4
:100B3000890F883078F4980102C0359527958A95F9
:100B4000E2F720FF04C08C2F0E94A00403C08C2F6A
:100B50000E94BF04CF5FC83039F7CF911F910F912A
:100B6000FF90EF9008951092BC00509A519880EA3F
:100B70008A95F1F7499B05C0509884E98093BC00A1
:100B8000089589E0589895E09A95F1F70000589AF1
:100B900095E09A95F1F700008150A1F7EDCF109202
:100BA000B9008CE08093B80008951F93CF93DF9332
:100BB000182F84EA8093BC0091E08091BC0087FDEF
:100BC00012C0992321F00E94071BEC010AC0CE013C
:100BD0000E941F1B883B9B4020F00E94B30582E0CF
:100BE0002BC090E0EACF9091B900987F983021F027
:100BF000903111F081E020C01093BB0084E8809315
:100C0000BC0081E09091BC0097FD0EC0882321F0CC
:100C10000E94071BEC0106C0CE010E941F1B883BEF
:100C20009B40D8F680E0EECF8091B900887F883174
:100C300011F08034F9F680E0DF91CF911F91089593
:100C40000C94D505CF93DF9384E98093BC0091E0A9
:100C50002091BC0024FF12C0992321F00E94071BA1
:100C6000EC010AC0CE010E941F1B883B9B4020F074
:100C7000DF91CF910C94B30590E0EACFDF91CF9153
:100C80000895CF93DF938093BB0084E88093BC00EA
:100C900091E02091BC0027FD12C0992321F00E9411
:100CA000071BEC010AC0CE010E941F1B883B9B4022
:100CB00020F00E94B30582E009C090E0EACF909155
:100CC000B900987F81E0983209F480E0DF91CF91FC
:100CD0000895CF93DF9384E88093BC0091E0209146
:100CE000BC0027FD12C0992321F00E94071BEC01D4
:100CF0000AC0CE010E941F1B883B9B4020F00E942F
:100D0000B30582E004C090E0EACF8091BB00DF91A0
:100D1000CF91089585B7806885BF85B7806885BF06
:100D2000269A239A2B98089585B183FB882780F90A
:100D300091E0892708958091AF0181112B9A089540
:100D40008091AF0181112B980895CF93DF9300D04C
:100D500000D01F92CDB7DEB70E94131B6093C00175
:100D60007093C1018093C2019093C3010F900F90C3
:100D70000F900F900F90DF91CF910895853008F07C
:100D80008F5F2091B80130E0A90102C055954795C9
:100D90008A95E2F7CA01817008950F931F93CF934C
:100DA000DF931F92CDB7DEB79091B9019923A1F0DF
:100DB000062F182F80E40E94D505811108C0812FCD
:100DC0000E944106811103C0802F0E944106898341
:100DD0000E9422068981982F892F0F90DF91CF9151
:100DE0001F910F9108956FEF81E00C94CD068F5FF6
:100DF00061E070E001C0660F8A95EAF7609581E0D6
:100E00000C94CD066FEF82E00E94CD066FEF8CE070
:100E10000E94CD066FEF81E00C94CD0680E40E9425
:100E2000D50581110CC00E9422068091B901811163
:100E30000EC081E08093B9010E94020706C0809134
:100E4000B901813021F41092B9010C947E140895F7
:100E50000E94CF050C940E070F931F93CF93DF933F
:100E6000C091B901CC23D1F08B01D82F80E40E942E
:100E7000D505C82F811110C08D2F0E944106C82FA3
:100E800081110AC081E40E942006C82F811104C08C
:100E90000E946906F80180830E9422068C2FDF9150
:100EA000CF911F910F91089568EB71E082E10C944E
:100EB0002C078091BA010895089508950F931F9308
:100EC000CF93DF938A3E910509F474C0C8F5863B41
:100ED000910509F478C0C0F4833B910509F47EC004
:100EE00040F4823B910509F081C000E010E0D8E0B9
:100EF00082C0843B910509F475C0853B910509F0DA
:100F000075C000E010E476C08D3C910509F455C031
:100F100068F4873B910509F453C0883B910509F0BB
:100F200065C000E010E0D0E0C0E266C0823E9105FE
:100F3000F1F1893E910509F059C000E014E05AC072
:100F4000833222E0920789F1A8F4823921E09207E6
:100F500009F440C030F48A38914009F047C000E8F5
:100F600048C0843921E0920789F181329240F1F53D
:100F700000E13FC0863222E0920799F048F48432C3
:100F800022E09207A9F18532924081F502E031C05A
:100F9000873222E0920739F08A32924039F500E236
:100FA00028C004E026C008E024C000E422C000E01D
:100FB00011E020C000E012E01DC000E018E01AC0FF
:100FC00000E010E117C000E010E214C000E010E003
:100FD000D1E011C000E010E0D2E00DC000E010E070
:100FE000D0E109C000E010E0D0E205C000E001C09F
:100FF00001E010E0D0E0C0E088E00E94BD0180E0A8
:101000000E94BD0181EA0E94BD0183E00E94BD01F2
:10101000802F0E94BD01812F0E94BD018D2F0E9453
:10102000BD018C2FDF91CF911F910F910C94BD01C9
:10103000CF93DF93EC018CE00E94BD0180E00E9421
:10104000BD0181EA0E94BD0181E00E94BD0188814D
:101050000E94BD0180E00E94BD018A810E94BD0105
:101060008B810E94BD018C810E94BD018D810E94F7
:10107000BD018E810E94BD018F81DF91CF910C94C3
:10108000BD010E94131B6093C0017093C101809346
:10109000C2019093C30108958091C40181111EC0C3
:1010A0000E94B30F8050914059F00E947E148091AD
:1010B00015018093BF011092150180E091E01EC0E0
:1010C0008091BE01811125C080910803843009F50B
:1010D00081E08093C4018093BE011BC00E94B30FC6
:1010E0008A50914071F081E08093BE010E947E148D
:1010F0008091BF01809315018AE091E00E94AE0FBC
:1011000008C080910803843021F01092C40110922D
:10111000BE018091BB01811116C08091BD0181117A
:1011200012C06091C0017091C1018091C201909183
:10113000C3010E94491B613375478105910518F071
:1011400081E08093BD010E9494068823C1F08091C4
:10115000BD018823A1F06091C0017091C10180910F
:10116000C2019091C3010E94491B61387E4E8643A3
:10117000910528F081E08093BC010C949B060895B2
:101180008331E9F0883181F0853009F50E947E14C1
:101190002FEF83ED90E3215080409040E1F700C0B5
:1011A00000000E949B1B11C08091C401882319F08C
:1011B0001092C401089581E08093C4010895909134
:1011C000BB0181E089278093BB0181E0089580E025
:1011D000089584B7877F84BF0FB6F894A89580914F
:1011E0006000886180936000109260000FBE90E004
:1011F00080E80FB6F89480936100909361000FBE71
:101200000E94CB0C0E94280D8091E20084608093A4
:10121000E20078948FEF909108038150943041F070
:10122000EFE7FEE33197F1F700C000008111F3CF43
:1012300080910803843019F481E08093C4010E94F6
:101240008A060E9441080E94F00F8091BD01882308
:1012500081F00E94BD1B0E94F21B882351F0109266
:10126000BD018091BC01882321F01092BC010E9435
:10127000A0068091BC018111E8CF0E94F60F0E9468
:101280004C08E3CF8091E60108950895CF93DF9352
:1012900000D01F92CDB7DEB79C0180910803843047
:1012A00019F593E099833B832A839093E9008FEFAC
:1012B0009091E800815095FD06C095ED9A95F1F763
:1012C00000008111F5CF8091E80085FF0DC040E05E
:1012D00050E063E070E0CE0101960E94360B8091F1
:1012E000E8008E778093E8000F900F900F90DF91C9
:1012F000CF910895209108032430F1F422E0209347
:10130000E9002FEF3091E800215035FD06C035EDA2
:101310003A95F1F700002111F5CF2091E80025FF63
:101320000BC040E050E065E070E00E94360B809119
:10133000E8008E778093E8000895CF93DF93EC0167
:1013400090910803943009F046C0809114018823DD
:10135000D9F0809115018823B9F09093E9008FEFBF
:101360009091E800815095FD06C09AE29A95F1F7B8
:1013700000C08111F5CF8091E80085FF2CC040E0CE
:1013800050E060E270E017C081E08093E9008FEFE9
:101390009091E800815095FD06C095ED9A95F1F782
:1013A00000008111F5CF8091E80085FF14C040E076
:1013B00050E068E070E0CE010E94360B8091E800BA
:1013C0008E778093E80080E2FE01A6ECB1E0019008
:1013D0000D928A95E1F7DF91CF91089580910703EF
:1013E000811109C00E94CB0C0E94280D8091E2005F
:1013F00084608093E2000895109207030895089591
:1014000042E061EC81E00E94450C42E061EC82E048
:101410000E94450C42E061EC83E00E94450C42E2F0
:1014200061EC84E00C94450C80910A03833009F44C
:1014300055C030F4813071F0823009F48EC00895C7
:101440008A3009F47AC08B3009F460C0893009F021
:101450009CC020C080910903813A09F096C0809118
:10146000E800877F8093E80080910D0390910E0340
:10147000892B21F460E286EC91E003C060E080E01B
:1014800090E070E00E94810B8091E8008B77809360
:10149000E800089580910903813209F076C08091B7
:1014A0000D0390910E03009719F0039709F06DC09A
:1014B0008091E800877F8093E8008091E80082FDBA
:1014C00005C0809108038111F8CF5FC08091F100C1
:1014D0008093E6018091E8008B7753C080910903E7
:1014E000813A09F052C080910D0390910E03892B2F
:1014F00009F04BC08091E800877F8093E8008091DD
:10150000E80080FFFCCF8091140136C08091090370
:101510008132D9F580910D0390910E03892BA9F5A5
:101520008091E800877F8093E8000E947A0C809188
:101530000B03809314010C947E1480910903813273
:1015400021F58091E800877F8093E8000E947A0C63
:1015500080910C038093E701089580910903813AFB
:10156000A1F48091E800877F8093E8008091E800F3
:1015700080FFFCCF8091E7018093F1008091E8002B
:101580008E778093E8000C947A0C08958091E601A0
:101590008093C5011092E60180E00E94DE040E9463
:1015A000AC100C947E140C94C60A0E94071C809107
:1015B000C5018093E60108950C94D50A292F33279D
:1015C00023303105C9F064F42130310581F0223037
:1015D000310509F043C08DE690E028E831E042C0D3
:1015E00021323105F1F02232310541F137C082E17B
:1015F00090E025EF31E036C099278130910541F028
:101600008230910541F0892B49F5E4E8F1E005C00D
:10161000E0E7F1E002C0ECE5F1E0849190E09F01A9
:1016200021C06430D8F4E62FF0E0EE0FFF1FE65D36
:10163000FE4F2081318189E090E014C0643070F465
:1016400070E0FB01EE0FFF1FEE5DFE4F2081318148
:10165000FB01E25EFE4F808190E004C080E090E0FC
:1016600020E030E0FA01318320830895CF92DF92A9
:10167000EF92FF920F931F93CF93DF93EC018B01B7
:101680006A010E94990C811133C0C114D10439F050
:10169000F60180819181081B190BC80FD91FE12C1D
:1016A000F12C0115110519F18091E80085FD16C096
:1016B0008091E8008E778093E800C114D10449F04E
:1016C000F60180819181E80EF91EF182E08285E0C9
:1016D0000FC00E94990C882321F30AC0899180933E
:1016E000F10001501109FFEFEF1AFF0ADACF80E095
:1016F000DF91CF911F910F91FF90EF90DF90CF90EE
:10170000089520910F03309110032617370748F0F2
:101710006115710539F42091E8002E772093E800D7
:1017200001C0B90140E061157105A9F120910803DC
:10173000222309F443C0253009F442C02091E80077
:1017400023FD40C02091E80022FD32C02091E80036
:1017500020FFE9CF4091F3002091F20030E0342BDC
:10176000FC01CF016115710559F02830310540F4B5
:1017700081918093F100615071092F5F3F4FF1CF4C
:1017800041E02830310509F040E02091E8002E7753
:101790002093E800C8CF4111C9CF0AC08091080347
:1017A000882361F0853061F08091E80083FD0AC0F4
:1017B0008091E80082FFF2CF80E0089582E00895F2
:1017C00083E0089581E0089520910F033091100384
:1017D0002617370748F06115710539F42091E800A4
:1017E0002E772093E80001C0B901FC0120E06115CB
:1017F000710591F180910803882309F440C0853078
:1018000009F43FC08091E80083FD3DC08091E8006D
:1018100082FD2FC08091E80080FFE9CF2091F30086
:101820008091F20090E0922B6115710559F088309B
:10183000910540F424912093F10031966150710993
:101840000196F2CF21E0089709F020E08091E800AE
:101850008E778093E800CBCF2111CCCF0AC0809146
:101860000803882361F0853061F08091E80083FDF2
:101870000AC08091E80082FFF2CF80E0089582E004
:10188000089583E0089581E00895982F973058F5E2
:101890009093E900981739F07091EC002091ED00D9
:1018A0005091F00003C0242F762F50E021FF19C083
:1018B0003091EB003E7F3093EB003091ED003D7FA7
:1018C0003093ED003091EB0031603093EB0070937A
:1018D000EC002093ED005093F0002091EE0027FFE4
:1018E00007C09F5FD3CF8F708093E90081E0089598
:1018F00080E008958091090387FF11C08091E8007E
:1019000082FD05C0809108038111F8CF11C080913C
:10191000E8008B770BC080910803882349F0809101
:10192000E80080FFF8CF8091E8008E778093E80090
:1019300008952091E4003091E50095E64091EC0097
:10194000842F817040FF22C08091E80080FD1CC080
:1019500080910803882391F0853091F08091EB000D
:1019600085FD10C04091E4005091E50042175307F7
:1019700029F39A01915011F784E0089582E00895C7
:1019800083E0089581E0089580E008954091E800A3
:1019900042FFDECF08950E94390D0E94410DE0EE16
:1019A000F0E0808181608083E8EDF0E080818F77D6
:1019B000808319BCA7EDB0E08C918E7F8C938081E1
:1019C0008F7E80831092070308950F931F93CF9308
:1019D000DF930E94390D0E94410DC8EDD0E088814F
:1019E0008F77888388818068888388818F7D8883CA
:1019F00019BC10920803109204031092060310926F
:101A0000050300EE10E0F80180818B7F80838881E0
:101A10008160888342E060E080E00E94450CE1EE56
:101A2000F0E080818E7F8083E2EEF0E08081816053
:101A30008083808188608083F80180818E7F8083AD
:101A4000888180618883DF91CF911F910F910895E4
:101A5000E8EDF0E080818F7E8083E7EDF0E080812B
:101A60008160808384E082BF81E0809307030C94CF
:101A7000E50CE8EDF0E080818E7F80831092E2003B
:101A800008951092DA001092E10008951F920F92CB
:101A90000FB60F9211242F933F934F935F936F9341
:101AA0007F938F939F93AF93BF93EF93FF93809117
:101AB000E10082FF0BC08091E20082FF07C08091AD
:101AC000E1008B7F8093E1000E94AD0F8091DA00EE
:101AD00080FF1FC08091D80080FF1BC08091DA007A
:101AE0008E7F8093DA008091D90080FF0DC080E165
:101AF00089BD82E189BD09B400FEFDCF81E08093FC
:101B000008030E94EE0905C019BC109208030E9448
:101B1000FC098091E10080FF19C08091E20080FF04
:101B200015C08091E2008E7F8093E2008091E200F8
:101B300080618093E2008091D80080628093D80019
:101B400019BC85E0809308030E94D30A8091E100CC
:101B500084FF30C08091E20084FF2CC080E189BD09
:101B600082E189BD09B400FEFDCF8091D8008F7D50
:101B70008093D8008091E1008F7E8093E100809176
:101B8000E2008F7E8093E2008091E200816080938A
:101B9000E20080910403882311F084E007C0809163
:101BA000E30087FD02C081E001C083E08093080369
:101BB0000E94DC0A8091E10083FF29C08091E2004D
:101BC00083FF25C08091E100877F8093E10082E060
:101BD00080930803109204038091E1008E7F80932C
:101BE000E1008091E2008E7F8093E2008091E2002C
:101BF00080618093E20042E060E080E00E94450C5A
:101C00008091F00088608093F0000E94FF09FF91AE
:101C1000EF91BF91AF919F918F917F916F915F9164
:101C20004F913F912F910F900FBE0F901F901895DD
:101C30001F920F920FB60F9211242F933F934F9341
:101C40005F936F937F938F939F93AF93BF93CF9344
:101C5000DF93EF93FF93C091E900CF708091EC0088
:101C6000D82FD17080FDD0E81092E9008091F0006B
:101C7000877F8093F00078940E945C0E1092E900B8
:101C80008091F00088608093F000CD2BCF70C093DE
:101C9000E900FF91EF91DF91CF91BF91AF919F91BB
:101CA0008F917F916F915F914F913F912F910F9005
:101CB0000FBE0F901F9018951F93CF93DF93CDB752
:101CC000DEB7AA970FB6F894DEBF0FBECDBFE9E02E
:101CD000F3E088E08E0F9091F10091938E13FBCF8B
:101CE0000E94140A8091E80083FF1FC180910903BC
:101CF00090910A03492F50E04A30510508F015C170
:101D0000FA01E659FF4F0C94FD21803881F08238AA
:101D100009F00BC180910D038F708093E9008091D1
:101D2000EB0085FB882780F91092E90006C08091BE
:101D3000050390910603911182609091E800977FCE
:101D40009093E8008093F1001092F100C8C0282F12
:101D50002D7F09F0EAC0882319F0823061F0E5C0D8
:101D600080910B03813009F0E0C0933009F080E0EE
:101D7000809306032BC080910B03811127C08091B3
:101D80000D038F7009F4D1C08093E9002091EB001E
:101D900020FF1CC0933021F48091EB00806214C0BE
:101DA0009091EB0090619093EB0021E030E0A9016D
:101DB00002C0440F551F8A95E2F74093EA00109243
:101DC000EA008091EB0088608093EB001092E900BC
:101DD0008091E800877F86C08111A7C010910B0316
:101DE0001F778091E3008078812B8093E3008091BE
:101DF000E800877F8093E8000E947A0C8091E800D9
:101E000080FFFCCF8091E30080688093E300111194
:101E100002C082E001C083E08093080386C080583E
:101E2000823008F082C080910B0390910C038C3DAE
:101E300053E0950779F583E08A838AE289834FB777
:101E4000F894DE01139620E03EE051E2E32FF0E04B
:101E500050935700E49120FF03C0E295EF703F5F7D
:101E6000EF708E2F90E0EA3010F0C79601C0C09658
:101E70008D939D932F5F243149F74FBF8091E800E8
:101E8000877F8093E8006AE270E0CE0101960E94AD
:101E9000810B14C0AE014F5F5F4F60910D030E9434
:101EA000DE0ABC01892B09F440C09091E800977FBD
:101EB0009093E80089819A810E94E40B8091E80068
:101EC0008B778093E80031C0803879F58091E80005
:101ED000877F8093E800809104038093F1008091D4
:101EE000E8008E778093E8000E947A0C1EC0811172
:101EF0001CC090910B039230C0F48091E800877F62
:101F00008093E800909304030E947A0C809104036C
:101F1000811106C08091E30087FD02C081E001C00D
:101F200084E0809308030E94000A8091E80083FF08
:101F30000AC08091E800877F8093E8008091EB00E1
:101F400080628093EB00AA960FB6F894DEBF0FBEB6
:101F5000CDBFDF91CF911F91089508959093EB012C
:101F60008093EA0108958091EA019091EB01089530
:101F7000E091EA01F091EB01309721F00190F081BE
:101F8000E02D099480E00895E091EA01F091EB01E1
:101F9000309721F00280F381E02D09940895E091BB
:101FA000EA01F091EB01309721F00480F581E02DFA
:101FB000099408952091E8013091E901821793076F
:101FC00071F09093E9018093E801E091EA01F091CA
:101FD000EB01309721F00084F185E02D09940895FC
:101FE0000E94FE1A0E9498020C9476048F929F928F
:101FF000AF92BF92CF92DF92EF92FF920F931F9317
:10200000CF93DF9300D000D01F92CDB7DEB70E94F0
:10201000EB0201EF11E0F12C8F2D0E946C044C01BA
:10202000F801A080B180A826B926A114B10439F422
:10203000F3940E5F1F4FF6E0FF12EECF39C0809190
:10204000F10281FD0E947504E12CCC24C394D12CB3
:10205000C6018A219B21892B21F1E982FA8221E0A4
:10206000C60188219921892B09F420E02B830E9445
:10207000071B8160782F9D838C8349815A816B81F6
:102080008D810E94AF1049815A816B817C818D8145
:102090000E94A506F801808191818C259D25918360
:1020A0008083E394CC0CDD1CFEE0EF12D1CFC0CFD7
:1020B0008FEF89838A831B820E94071B8160782FA0
:1020C0009D838C8349815A816B818D810E94AF10E1
:1020D0000E94FB1A0E94AF1D1091F0010E94B80FE0
:1020E000181731F00E94B80F8093F0010E94FC1A7B
:1020F000809108038430E1F48091EE019091EF012A
:1021000001969093EF018093EE018091EC01909104
:10211000ED010E941F1B883E934050F00E94071B58
:102120009093ED018093EC011092EF011092EE017B
:102130000F900F900F900F900F90DF91CF911F9104
:102140000F91FF90EF90DF90CF90BF90AF909F9056
:102150008F9008950C94DE04089508950895CF9308
:10216000DF93CDB7DEB72B970FB6F894DEBF0FBE67
:10217000CDBF942F4F83252F588769877A878B8708
:102180004A855B85452B21F02F3F09F59F3FF9F4E8
:10219000DE01119686E0FD0111928A95E9F785E04E
:1021A000FE01379601900D928A95E1F749815A8197
:1021B0006B817C818D819E810E9449172B960FB681
:1021C000F894DEBF0FBECDBFDF91CF9108954F8150
:1021D000588569857A858B850E94A506D9CFCF93CE
:1021E000882309F452C0C82F8CEF8C0F813A20F05D
:1021F00080E58C0F8E3248F48C2F0E9420208111B4
:1022000044C08C2F0E94121A0CC080E28C0F8830C0
:1022100058F4C77081E001C0880FCA95EAF70E94A0
:102220009B1ACF910C94D51A88E58C0F873168F5ED
:10223000C83A89F0C93A91F0CA3A99F0CB3AA1F07C
:10224000CC3AA9F0CD3AB1F0CE3AB9F0CF3AC1F0DC
:1022500080E090E017C082EE90E014C089EE90E03C
:1022600011C08AEE90E00EC085EB90E00BC086EBCB
:1022700090E008C083EB90E005C084EB90E002C0E2
:1022800087EB90E0CF910C94DA0FCF9108958823DB
:1022900009F19CEF980F913A20F090E5980F9E324B
:1022A00018F40E94541A0DC090E2980F983058F418
:1022B000877091E001C0990F8A95EAF7892F0E94F3
:1022C000A11A0C94D51A885A873120F480E090E046
:1022D0000C94DA0F0895882321F00E949B1A0C9425
:1022E000D51A0895882321F00E94A11A0C94D51ABA
:1022F0000895CF92DF92EF92FF920F931F93CF93A7
:10230000DF9300D000D000D0CDB7DEB725E0FC01D0
:10231000DE01119601900D922A95E1F7FC014081B2
:102320005181F28063817481258122952F7061151E
:10233000710509F4C6C25F3F19F44F3F09F4C1C2E9
:102340006C01862F7D836C836F2D782F8D812E837A
:102350000E94A519182F092F0E94A4190E949418F1
:10236000E02FE295EF70F0E0EC58FF4F2E810C94D7
:10237000FD21802F807F902F9F70092F882311F0DF
:102380000295007FFF2049F0002309F44BC2802F03
:102390000E94AE1A0E94D51A45C2812F0E94471191
:1023A000002309F48EC2802F0E94B41A26960FB61D
:1023B000F894DEBF0FBECDBFDF91CF911F910F917B
:1023C000FF90EF90DF90CF900C94D51A802F807FF4
:1023D000902F9F70092F803211F00295007F1123FA
:1023E00019F0113001F129C0FF20A9F0802F22231C
:1023F00049F1213039F526960FB6F894DEBF0FBEAD
:10240000CDBFDF91CF911F910F91FF90EF90DF90A3
:10241000CF900C94BE1A222319F0213009F451C236
:102420000E94C11A2CC0FF20E9F0233008F049C2F5
:102430000E94981A802329F022C0FF20F1F0211178
:1024400015C0802F26960FB6F894DEBF0FBECDBF05
:10245000DF91CF911F910F91FF90EF90DF90CF9080
:102460000C946B11223008F02CC209C0F601858152
:1024700080FFD8C18F708583E4CF2111E7C1802F01
:1024800055C1802F86958695837009F01AC2FF206A
:1024900021F0812F902F937002C080E090E026966B
:1024A0000FB6F894DEBF0FBECDBFDF91CF911F9165
:1024B0000F91FF90EF90DF90CF900C94DA0F812F67
:1024C000FF2081F00E94B71C0E94A41D163408F062
:1024D000F8C1E12FF0E0E250FE4F81E0808380936D
:1024E000FD01EFC10E941F1D0E94A41D163408F0BB
:1024F000E8C1E12FF0E0E250FE4F10821092FD01A2
:10250000E0C1802F837009F078C0F110DAC1812F0B
:10251000829586958770880F880F912F9F70C92E9E
:10252000D12CE12CF12C082E04C0CC0CDD1CEE1CAF
:10253000FF1C0A94D2F714FF12C04FE050E060E095
:1025400070E004C0440F551F661F771F8A95D2F7AD
:10255000CB01BA01609570958095909503C060E0BD
:1025600070E0CB01202F269526952370422F50E056
:1025700042305105D1F04330510559F16C297D2984
:102580008E299F294130510541F126960FB6F894C6
:10259000DEBF0FBECDBFDF91CF911F910F91FF9096
:1025A000EF90DF90CF900C94B9186C297D298E297B
:1025B0009F2926960FB6F894DEBF0FBECDBFDF91E0
:1025C000CF911F910F91FF90EF90DF90CF900C94DF
:1025D000D3180E94B918C701B60126960FB6F89411
:1025E000DEBF0FBECDBFDF91CF911F910F91FF9046
:1025F000EF90DF90CF900C949F18FF2019F0802F60
:10260000817001C08695882309F45BC1812F829572
:1026100086958770880F880F912F9F70C92ED12CB7
:10262000E12CF12C082E04C0CC0CDD1CEE1CFF1C90
:102630000A94D2F714FF12C04FE050E060E070E05F
:1026400004C0440F551F661F771F8A95D2F7CB0130
:10265000BA01609570958095909503C060E070E038
:10266000CB01202F269526952370422F50E0423033
:102670005105D1F04330510559F16C297D298E293E
:102680009F294130510541F126960FB6F894DEBFDF
:102690000FBECDBFDF91CF911F910F91FF90EF90B3
:1026A000DF90CF900C9480196C297D298E299F2969
:1026B00026960FB6F894DEBF0FBECDBFDF91CF9147
:1026C0001F910F91FF90EF90DF90CF900C94921993
:1026D0000E948019C701B60126960FB6F894DEBF96
:1026E0000FBECDBFDF91CF911F910F91FF90EF9063
:1026F000DF90CF900C946E19103F41F118F4103E0A
:1027000048F48BC0123F09F450C0D8F1133F09F4CC
:1027100060C083C01F70802F8F71FF2021F00E9446
:102720000719812F8FCE0E942819812F26960FB668
:10273000F894DEBF0FBECDBFDF91CF911F910F91F7
:10274000FF90EF90DF90CF900C947211FF20A9F0D2
:10275000223008F0B6C0802F8F7126960FB6F894FD
:10276000DEBF0FBECDBFDF91CF911F910F91FF90C4
:10277000EF90DF90CF900C944D19233008F0A1C05A
:10278000EACFFF20A1F0802F8F7126960FB6F89424
:10279000DEBF0FBECDBFDF91CF911F910F91FF9094
:1027A000EF90DF90CF900C940719FF2061F3802FFA
:1027B0008F7126960FB6F894DEBF0FBECDBFDF91A6
:1027C000CF911F910F91FF90EF90DF90CF900C94DD
:1027D0002819FF2091F0802F8F7126960FB6F8945C
:1027E000DEBF0FBECDBFDF91CF911F910F91FF9044
:1027F000EF90DF90CF900C94F21826960FB6F894D5
:10280000DEBF0FBECDBFDF91CF911F910F91FF9023
:10281000EF90DF90CF900C94ED18FF20A1F02223D1
:1028200009F4B1CF812F26960FB6F894DEBF0FBE04
:10283000CDBFDF91CF911F910F91FF90EF90DF906F
:10284000CF900C94EF10222309F4B1CF812F26965C
:102850000FB6F894DEBF0FBECDBFDF91CF911F91B1
:102860000F91FF90EF90DF90CF900C944711402F85
:102870004F70612FC6010E94321C26960FB6F89445
:10288000DEBF0FBECDBFDF91CF911F910F91FF90A3
:10289000EF90DF90CF900C94ED17402F4F70612F89
:1028A000C60126960FB6F894DEBF0FBECDBFDF91EE
:1028B000CF911F910F91FF90EF90DF90CF900C94EC
:1028C000110226960FB6F894DEBF0FBECDBFDF9182
:1028D000CF911F910F91FF90EF90DF90CF900895CF
:1028E0000E94BB1A0E948A1A0E94D51A0E94941E46
:1028F0000E94A41D80E090E00C94DA0F0E94AB1AB5
:102900000C947014CF93DF9300D000D01F92CDB7FA
:10291000DEB70E94A519292F22952F7030E02C30A8
:1029200031054CF42A303105C4F4225031092230EB
:10293000310540F023C02C303105D1F02F30310566
:10294000B9F01CC0853A28F48430B0F4823028F401
:1029500013C090E2980F983078F0883E30F4803EB3
:1029600058F48450813A50F407C0803F39F404C0D1
:1029700093FB882780F903C081E001C080E00F90BD
:102980000F900F900F900F90DF91CF910895CF93FC
:10299000DF9300D000D01F92CDB7DEB70F900F901D
:1029A0000F900F900F90DF91CF910895CF93DF9309
:1029B00000D000D000D0CDB7DEB726960FB6F89481
:1029C000DEBF0FBECDBFDF91CF9108951F93CF9390
:1029D000DF93C0913A0216E080913B02C81799F04C
:1029E000D0E01C9FF0011D9FF00D1124E45CFD4F11
:1029F0004081518162817381848195810E94D614C6
:102A00002196C770E9CFDF91CF911F910895409132
:102A10006C0250916D0260916E0270916F02809114
:102A20007002909171020C94D6148091710282957B
:102A30008F7009F054C080916E02882309F44FC052
:102A400080913A02A0913B0260916C0270916D02FC
:102A500040916F0250917002B6E08A1709F43FC0AE
:102A600090E041155105C1F17F3F11F46F3FA1F195
:102A7000B89FF001B99FF00D1124E45CFD4F218156
:102A800072132AC02081621327C02281211124C021
:102A9000238134812417350710F421503109241B78
:102AA000350B243B3105C0F4209171022F70206159
:102AB0002093710226E0289FF001299FF00D112438
:102AC000EF5BFD4F80818F70806180838CE692E0A8
:102AD0000E9479110C94E61401968770BECF089578
:102AE000BF92CF92DF92EF92FF920F931F93CF93FB
:102AF000DF93CDB7DEB761970FB6F894DEBF0FBE98
:102B0000CDBF7C0185E0F701DE011D9601900D929D
:102B10008A95E1F7D7014C9111965C911197129625
:102B2000DC90129713960D911C91149730916C02C2
:102B300060916D0280916F0290917002009709F48C
:102B400077C16F3F19F43F3F09F472C1B0906E0234
:102B5000BB2009F4C5C0209171020817190728F09D
:102B6000F801E81BF90BCF0104C080959095800F08
:102B7000911FCC24C394843B910580F0C12C207F0D
:102B800009F0CCC0702F198B088B6D2D89890E949C
:102B9000C7148CE692E00E947911B6C0822F807F24
:102BA00009F047C0651314C0341312C0D11010C00F
:102BB0002F702061209371020E9407158CE692E02D
:102BC0000E94791180917102D70115968C932FC0C4
:102BD0000115110519F15F3F11F44F3FF9F0CD2CAC
:102BE000D1101CC080913A0220913B0236E082173E
:102BF00009F45CC090E0389FF001399FF00D11247A
:102C0000E45CFD4F6181561306C06081461303C02A
:102C10006281611103C001968770E9CFCD2CDD2060
:102C200009F426C180917102816080937102C12CE8
:102C30001FC1651308C0341306C0D11004C08091B1
:102C40007102D701C9C04D875E87DF86702F198B4F
:102C5000088B6D2D89890E9482148823E9F1DD207B
:102C6000D9F120917102822F82958F7090E00297A6
:102C700074F080916C0290916D0298878F83198611
:102C80001B870A872C87CE0107960E94791186E060
:102C9000F701ACE6B2E001900D928A95E1F70E944F
:102CA00015150E940715CC24C394E2C0702F198B10
:102CB000088B60E089890E94A519292F22952F7021
:102CC00030E0223031050CF0C7C09F7009F0C1C060
:102CD000805E883008F4CCC0C7010E947911E3CF30
:102CE0000817190708F456C0F801E81BF90BCF01C3
:102CF000843B910508F453C0C12C702F198B088BAD
:102D00006D2D89890E94C714ECE6F2E086E0DF01B0
:102D10001D928A95E9F70E940715AAC0651314C091
:102D2000341312C0D11010C080917102F701858355
:102D3000C7010E94791186E0ECE6F2E0DF011D9206
:102D40008A95E9F7CB2C94C04D875E87DF86702F7C
:102D5000198B088B6D2D89890E948214882309F4B0
:102D6000BBCFDD2009F4B8CF20917102822F82956C
:102D70008F7090E002970CF48ACF80916C02909152
:102D80006D029A8389831B821D830C832E83CE015F
:102D900001967BCF80959095800F911FA9CFCD2C68
:102DA000DD2009F499CF65132EC034132CC0209177
:102DB000710220FD1FC0822F82958F70D9F0D7013C
:102DC00015962C9315978F3049F08F5F982F929519
:102DD000907F822F8F70892B15968C93C7010E944C
:102DE000791186E0F701ACE6B2E001900D928A9588
:102DF000E1F791CF86E0F701ACE6B2E001900D92E9
:102E00008A95E1F735C04D875E87DF86702F198B75
:102E1000088B6D2D89890E948214811138CF809191
:102E20007102816080937102C7010E94791120C0F4
:102E3000DD2009F451CF4D875E87DF86702F198B17
:102E4000088B6D2D89890E948214882309F444CF50
:102E50001ECF81113DCF0CC0243031050CF03CCF8A
:102E60009F7009F435CFF7019581907F09F030CF3D
:102E70008C2D61960FB6F894DEBF0FBECDBFDF91EB
:102E8000CF911F910F91FF90EF90DF90CF90BF9067
:102E900008951F93CF93DF93CDB7DEB72C970FB66E
:102EA000F894DEBF0FBECDBF4F83588769877A87FE
:102EB0008B879C87CE0107960E947015882369F046
:102EC0008F8198852A853B85232BF1F19F3F09F05F
:102ED00063C08F3F09F060C037C086E0FE013796BF
:102EE000DE01119601900D928A95E1F76F81788548
:102EF000EA85FB85309741F17F3F11F46F3F21F167
:102F000020913B0230E0C9010196877099274091DA
:102F10003A0250E08417950709F447C069837A8321
:102F2000FD83EC8396E0929FD001939FB00D112416
:102F3000A45CBD4FFE01319601900D929A95E1F788
:102F400080933B020E94E61416E080913A02909131
:102F50003B028917C1F1189FC0011124845C9D4F69
:102F60000E947015882379F1E0913A021E9FF001CA
:102F70001124E45CFD4F4081518162817381848121
:102F800095810E94D61480913A0290E00196877054
:102F9000992780933A02D9CF4F81588569857A85E0
:102FA0008B859C850E94D614CFCF0E947E141092F0
:102FB0003B0210923A02ECE6F2E086E0DF011D925D
:102FC0008A95E9F7C1CF2C960FB6F894DEBF0FBEF5
:102FD000CDBFDF91CF911F910895DF92EF92FF92C5
:102FE0000F931F93CF93DF93FC01892B09F48AC0C1
:102FF000E12CF12CDD24D394EF01219684918537C7
:1030000009F461C058F4843708F04EC0843008F0E9
:103010006AC08130D1F0823071F174C0883709F410
:103020005DC050F4863709F455C0873709F06AC08F
:103030008E2D0E94A81A54C09CE7980F903708F074
:1030400061C08F770E94471150C08F010E5F1F4FE4
:10305000FE01849190E2980F983050F48770FD2D16
:1030600001C0FF0F8A95EAF78F2F0E94AE1A14C095
:103070000E94EF1013C08F010E5F1F4FFE01C4911D
:1030800080E28C0F883060F4C7708D2D01C0880FEE
:10309000CA95EAF70E94B41A0E94D51AE80125C021
:1030A0008C2F0E944711FACF9F012E5F3F4FFE01E8
:1030B000C491CC2369F08FE99FE00197F1F700C03C
:1030C0000000C150F6CF9F012E5F3F4FFE01F490EC
:1030D000E9010BC00E94981AE82E07C00E94AB1AA3
:1030E0000E94D51A02C00E94EF108F2D882341F054
:1030F000EFE9FFE03197F1F700C000008150F6CF13
:10310000FE017ACFDF91CF911F910F91FF90EF9049
:10311000DF9008956093C6027093C7028093C8023F
:103120009093C9020C94090508956093CA027093A4
:10313000CB028093CC029093CD020C9448050F9360
:103140001F930091CA021091CB022091CC023091C2
:10315000CD02602B712B822B932B6093CA0270934C
:10316000CB028093CC029093CD021F910F910C94CF
:1031700048050F931F930091CA021091CB02209132
:10318000CC023091CD02602371238223932360937C
:10319000CA027093CB028093CC029093CD021F9110
:1031A0000F910C9448050F931F930091CA02109140
:1031B000CB022091CC023091CD026027712782276B
:1031C00093276093CA027093CB028093CC029093B2
:1031D000CD021F910F910C94480560E070E0CB0187
:1031E0000C948A180F931F9341E050E060E070E068
:1031F0008A019B0104C0000F111F221F331F8A95F3
:10320000D2F7C901B8011F910F910C948A180F933E
:103210001F9341E050E060E070E004C0440F551F90
:10322000661F771F8A95D2F78091C6029091C702D8
:10323000A091C802B091C9028A019B01082B192BE9
:103240002A2B3B2BC901B8011F910F910C948A18AE
:103250000F931F9341E050E060E070E004C0440F22
:10326000551F661F771F8A95D2F740955095609538
:1032700070958091C6029091C702A091C802B0914A
:10328000C9028A019B01082319232A233B23C90170
:10329000B8011F910F910C948A180F931F9341E06E
:1032A00050E060E070E004C0440F551F661F771FB8
:1032B0008A95D2F78091C6029091C702A091C80268
:1032C000B091C9028A019B01082719272A273B27A9
:1032D000C901B8011F910F910C948A180F931F9385
:1032E0000091C6021091C7022091C8023091C90214
:1032F000602B712B822B932B1F910F910C948A18AA
:103300000F931F930091C6021091C7022091C8022B
:103310003091C90260237123822393231F910F915F
:103320000C948A180F931F930091C6021091C70244
:103330002091C8023091C902602771278227932704
:103340001F910F910C948A1808958F929F92AF92BB
:10335000BF92DF92EF92FF920F931F93CF93DF9371
:1033600000D000D01F92CDB7DEB78A016623C9F125
:103370008090CA029090CB02A090CC02B090CD0277
:103380008091C6029091C702A091C802B091C90273
:10339000882A992AAA2ABB2A8FE1E82EF12CD50186
:1033A000C4010E2C04C0B695A795979587950A94ED
:1033B000D2F780FF07C0DE2CB8018E2D0E94DB0102
:1033C000019729F481E0E81AF10848F7D12C8EE042
:1033D000189FF0011124E00FF11DEE58FD4FD0822F
:1033E00009C08EE0189FF0011124E40FF11DEE5882
:1033F000FD4FD08009831A8369817A818D2D0E94C7
:10340000DB010F900F900F900F900F90DF91CF91F5
:103410001F910F91FF90EF90DF90BF90AF909F9022
:103420008F90089590911401992321F090911501A6
:10343000911109C02091160130911701F9013296BE
:103440009FEF40E01FC0982F9695969596959F31D7
:1034500050F5E0911601F0911701E90FF11D877009
:1034600021E030E0A90102C0440F551F8A95E2F720
:10347000CA019181892B818308959F3F39F04F5F65
:103480004E3141F051915813F8CF0DC05111F7CF83
:10349000942FF5CF9F3F39F0F901E90FF11D97FD0A
:1034A000FA9582830895089590911401992321F04B
:1034B00090911501911109C02091160130911701C9
:1034C000F9013296205E3F4F1FC0982F9695969532
:1034D00096959F31F0F4E0911601F0911701E90FF4
:1034E000F11D877021E030E0A90102C0440F551F93
:1034F0008A95E2F7CA018095918189238183089595
:103500003196E217F30729F090819813F9CF1082D2
:10351000F7CF089581E090E0E0911601F091170156
:10352000E80FF91F1082019680329105A9F70895DE
:103530008091F00208959091F002892B8093F0021F
:10354000089580959091F00289238093F002089568
:103550008093F00208951092F00208959091EF0286
:10356000892B8093EF02089580959091EF02892333
:103570008093EF0208951092EF0208958093CE0297
:1035800008951092CE02089580911601909117012E
:10359000FC0131969C01205E3F4F80E0919191119A
:1035A0008F5FE217F307D1F70895E0911601F091CC
:1035B00017018091F0028083E0911601F0911701CC
:1035C00090818091EF02892B80838091CE028823A5
:1035D00061F0E0911601F09117019081892B8083B1
:1035E0000E94C41A81111092CE028091160190910E
:1035F00017010C94C40F08950C94AA1082E084BDA6
:1036000093E095BD9AEF97BD80936E0008952FB714
:10361000F8948091F2029091F302A091F402B0919B
:10362000F5022FBF08952FB7F8946091F2027091C0
:10363000F3028091F4029091F5022FBF0895CF928A
:10364000DF92EF92FF920F931F932FB7F894409160
:10365000F2025091F3026091F4027091F5022FBFD3
:103660006A017B01EE24FF248C0120E030E0C016CB
:10367000D106E206F30610F4415051099A01281BC5
:10368000390BC9011F910F91FF90EF90DF90CF9000
:103690000895CF92DF92EF92FF920F931F932FB76F
:1036A000F894C090F202D090F302E090F402F0900F
:1036B000F5022FBF97018601061B170B280B390B4C
:1036C000C616D706E806F90618F0C901B80106C003
:1036D000C901B80161507109810991091F910F91C8
:1036E000FF90EF90DF90CF90089578941F920F9203
:1036F0000FB60F9211248F939F93AF93BF93809136
:10370000F2029091F302A091F402B091F5020196B9
:10371000A11DB11D8093F2029093F302A093F402D5
:10372000B093F502BF91AF919F918F910F900FBE13
:103730000F901F9018950E94CB0CF8942FEF87EAFA
:1037400091E6215080409040E1F700C0000087E002
:1037500090EBDC018093110390931203A093130369
:10376000B09314039CE088E10FB6F894A895809379
:1037700060000FBE90936000FFCF809108038430FB
:1037800009F42FC00FB6F894A89580916000886165
:1037900080936000109260000FBE1092F60220E449
:1037A00088E190E00FB6F894A895809360000FBE72
:1037B0002093600083B7817F846083BF83B781607B
:1037C00083BF7894889583B78E7F83BF0FB6F894B4
:1037D000A8958091600088618093600010926000DD
:1037E0000FBE0895CF930E94AD100E94EB020E947D
:1037F000AE10C0E08C2F0E946C04892B29F4CF5F9F
:10380000C630C1F780E001C081E0CF9108950C94EB
:103810007E141F920F920FB60F9211248F939F93D5
:10382000AF93BF938091F602811113C08091F20291
:103830009091F302A091F402B091F5024196A11D7E
:10384000B11D8093F2029093F302A093F402B0931F
:10385000F502BF91AF919F918F910F900FBE0F9086
:103860001F90189580E090E008958091FB0280FF02
:103870000BC060911B0185E0689FB0011124759514
:103880006795759567952BC081FF09C060911B01F5
:1038900085E0689FB00111247595679520C082FF6F
:1038A00007C060911B0185E0689FB001112417C01B
:1038B0009091FC029923D1F060911A01961788F734
:1038C00020911B0185E0289F90011124929FA00167
:1038D000939F500D112470E0CA010E94E9216038C5
:1038E000710540F46115710539F002C065E070E0C2
:1038F000862F08958FE7089581E008958091FB0257
:1039000080FF08C06091190170E075956795759505
:10391000679521C081FF06C06091190170E075951F
:10392000679519C082FF04C06091190170E010C052
:103930009091FC029923C1F0609118019617A0F7AD
:1039400080911901899FC001112470E00E94E92132
:103950006038710528F46115710521F0862F0895EE
:103960008FE7089581E0089561E070E0F4CF803F33
:1039700021F40E94351C819504C0813F29F40E94E6
:10398000351C8093FF020895823F21F40E94351C6C
:10399000819504C0833F29F40E94351C8093FE0268
:1039A0000895893F19F40E947E1C05C08A3F31F4B6
:1039B0000E947E1C81958093000308958B3F21F423
:1039C0000E947E1C819504C08C3F29F40E947E1CBD
:1039D000809301030895843F21F48091FD0281606A
:1039E00017C0853F21F48091FD02826011C0863F9F
:1039F00021F48091FD0284600BC0873F21F4809107
:103A0000FD02886005C0883F31F48091FD0280612D
:103A10008093FD0208958D3F21F48091FB02816027
:103A20000BC08E3F21F48091FB02826005C08F3F66
:103A300029F48091FB0284608093FB020895803F0B
:103A400039F48091FF0287FF6CC01092FF0269C0B9
:103A5000813F29F48091FF021816BCF362C0909157
:103A6000FE02823F29F497FF5CC01092FE0259C00B
:103A7000833F19F41916CCF354C0893F41F4809167
:103A8000000318160CF04DC0109200034AC08A3F84
:103A900029F48091000387FF44C0F6CF8B3F39F4AF
:103AA0008091010387FF3DC0109201033AC08C3F13
:103AB00029F4809101031816BCF333C0843F21F42C
:103AC0008091FD028E7F17C0853F21F48091FD0219
:103AD0008D7F11C0863F21F48091FD028B7F0BC04A
:103AE000873F21F48091FD02877F05C0883F31F434
:103AF0008091FD028F7E8093FD0213C08D3F21F4E3
:103B00008091FB028E7F0BC08E3F21F48091FB02DF
:103B10008D7F05C08F3F29F48091FB028B7F8093BE
:103B2000FB028091FE0281110EC08091FF02811183
:103B30000AC080910003811106C0809101038111A8
:103B400002C01092FC0208958DEF92E00E94CF0F08
:103B50000E94071B9093F8028093F70208950F9339
:103B60001F93CF93DF938091FD018823C9F180914A
:103B7000F9029091FA020E941F1B0B9788F102E054
:103B800012E0C4E0F80181918F01882351F08C2F5D
:103B90000E94121A0E94D51A8C2F0E94541A0E9459
:103BA000D51ACF5FC63471F78091FE01882391F05A
:103BB0008091FD0281608093FD028DEF92E00E9472
:103BC000CF0F8091FD028E7F8093FD028DEF92E0FA
:103BD0000E94CF0F0E94071B9093FA028093F90274
:103BE0008091F7029091F8020E941F1BAC01909106
:103BF000FC02992321F020911C0130E006C02091A5
:103C00001D01FAE02F9F900111244217530708F479
:103C100086C08091FE02C091FF02D09100031091F6
:103C20000103811107C0C11176C0D11174C01111F7
:103C300072C075C09F3F19F09F5F9093FC021816E9
:103C400024F40E94351C8093FE028091FE0287FFBF
:103C500005C00E94351C81958093FE021C1624F439
:103C60000E94351C8093FF028091FF0287FF05C0F0
:103C70000E94351C81958093FF026091FE026623AD
:103C800031F1C091FF02CC2311F1062E000C770B0D
:103C9000880B990B0E94F02023E333E343E35FE3B7
:103CA0000E9454210E94B8206093FE026C2FCC0F1A
:103CB000770B880B990B0E94F02023E333E343E357
:103CC0005FE30E9454210E94B8206093FF021D16FA
:103CD00024F40E947E1C809300038091000387FFE0
:103CE00005C00E947E1C819580930003111624F468
:103CF0000E947E1C809301038091010387FF05C011
:103D00000E947E1C819580930103DF91CF911F91CA
:103D10000F910C94A41D9F3F09F08ECF96CFDF9199
:103D2000CF911F910F910895EDEFF2E085E0DF0153
:103D30001D928A95E9F71092FC021092FB020895F9
:103D4000833081F128F4813059F08230D1F0089528
:103D5000853009F449C0B8F1863009F456C0089599
:103D600080911D01262F30E0280F311D2F3F310596
:103D700024F4680F60931D0108958FEF80931D0157
:103D8000089580911C01262F30E0280F311D2F3F10
:103D9000310524F4680F60931C0108958FEF809320
:103DA0001C01089580911B01262F30E0280F311D42
:103DB0002F3F310524F4680F60931B0108958FEFA6
:103DC00080931B01089580911A01262F30E0280F5F
:103DD000311D2F3F310524F4680F60931A010895B7
:103DE0008FEF80931A01089580911901262F30E0FA
:103DF000280F311D2F3F310524F4680F60931901FE
:103E000008958FEF80931901089580911801262F4E
:103E100030E0280F311D2F3F310524F4680F6093E7
:103E2000180108958FEF809318010895833011F1E0
:103E300028F4813049F0823091F00895853081F185
:103E400020F18630C1F1089580911D01681720F49A
:103E5000861B80931D01089510921D010895809185
:103E60001C01681720F4861B80931C010895109292
:103E70001C01089580911B01681720F4861B809314
:103E80001B01089510921B01089580911A01681773
:103E900020F4861B80931A01089510921A01089548
:103EA00080911901681720F4861B809319010895E9
:103EB00010921901089580911801681720F4861B4B
:103EC0008093180108951092180108950F931F937D
:103ED000873208F040C08E3108F096C0803109F476
:103EE0006DC008F5873009F45EC068F4863009F0CB
:103EF000A1C08091F102817F8E7F8093F10281E0E9
:103F00008093030398C08B3009F492C08E3009F07F
:103F100091C08091F10282FB222720F991E0922743
:103F200090FB82F954C0863109F482C020F48131BB
:103F300009F457C07FC0893109F47AC08B3109F088
:103F400079C08091F10281FB222720F991E092272C
:103F500090FB81F93CC0883309F46AC050F489327F
:103F600009F44DC0853309F44AC0873209F062C0B4
:103F700046C0833409F443C028F48A3308F45AC095
:103F8000895343C0883409F055C00E947E140FEF56
:103F900013ED20E3015010402040E1F700C0000085
:103FA0000E949B1B45C09091F102892F817090FF68
:103FB00012C0917F9E7F9093F1023DC08091F102EB
:103FC00083FB222720F991E0922790FB83F98093CD
:103FD000F102992369F18091F10281608093F102ED
:103FE00027C00E947E140E94B30F8A50914001F5B1
:103FF0009091150181E089278093150119C061E036
:1040000070E080E090E010C08D5141E050E060E051
:1040100070E08A019B0104C0000F111F221F331F93
:104020008A95D2F7C901B8010E9495180E947E14A2
:1040300081E001C080E01F910F91089580E0089514
:10404000CF93C82F80910303813069F018F082303C
:10405000C9F184C0E0911601F0911701808182328C
:1040600009F07EC007C0E0911601F0911701808130
:10407000823261F48C2F0E94C008811104C08C2F01
:104080000E94661F1DC081E090E01AC08C2F0E9424
:104090001E20811114C0C43179F048F4CB3079F07E
:1040A000C03109F061C082E08093030308C0C932C7
:1040B00019F0C83321F058C01092030355C081E0B5
:1040C000817054C0C93291F120F5C43179F1B0F456
:1040D000C73009F047C08EE180931D0182E38093D1
:1040E0001C018AE080931B0184E180931A0188E01F
:1040F0008093190188E28093180134C0CE51C630F4
:1041000088F5EC2FF0E0EE5CFE4F80818093020397
:1041100029C0CE34E9F020F4CB3421F56AE013C095
:10412000C13579F0C235F1F461E00DC08091020330
:10413000882319F01092020315C081E080930303D5
:1041400015C061E006C0809102030E94A01E0AC053
:104150006AE0809102030E94161F04C010920303BC
:1041600080E004C081E002C080E0AACFCF91089532
:104170000E94BF206894B1110C944E2108950E94B2
:10418000332188F09F5798F0B92F9927B751B0F095
:10419000E1F0660F771F881F991F1AF0BA95C9F7CB
:1041A00014C0B13091F00E944D21B1E008950C94FB
:1041B0004D21672F782F8827B85F39F0B93FCCF3AE
:1041C000869577956795B395D9F73EF49095809548
:1041D000709561957F4F8F4F9F4F0895E89409C068
:1041E00097FB3EF490958095709561957F4F8F4F2A
:1041F0009F4F9923A9F0F92F96E9BB279395F69540
:10420000879577956795B795F111F8CFFAF4BB0FBD
:1042100011F460FF1BC06F5F7F4F8F4F9F4F16C021
:10422000882311F096E911C0772321F09EE8872FAB
:10423000762F05C0662371F096E8862F70E060E067
:104240002AF09A95660F771F881FDAF7880F9695E0
:10425000879597F9089557FD9058440F551F59F0C9
:104260005F3F71F04795880F97FB991F61F09F3F63
:1042700079F087950895121613061406551FF2CF8C
:104280004695F1DF08C0161617061806991FF1CFDC
:1042900086957105610508940895E894BB27662703
:1042A0007727CB0197F908950E9467210C94D821B4
:1042B0000E94CA2138F00E94D12120F0952311F0EC
:1042C0000C94C1210C94C72111240C944E210E94FE
:1042D0002B2170F3959FC1F3950F50E0551F629FFE
:1042E000F001729FBB27F00DB11D639FAA27F00D4F
:1042F000B11DAA1F649F6627B00DA11D661F829F76
:104300002227B00DA11D621F739FB00DA11D621F5A
:10431000839FA00D611D221F749F3327A00D611D77
:10432000231F849F600D211D822F762F6A2F112459
:104330009F5750409AF0F1F088234AF0EE0FFF1F8C
:10434000BB1F661F771F881F91505040A9F79E3FE3
:10435000510580F00C94C1210C944E215F3FE4F391
:10436000983ED4F3869577956795B795F795E79539
:104370009F5FC1F7FE2B880F911D9695879597F942
:10438000089597F99F6780E870E060E008959FEFD7
:1043900080EC089500240A941616170618060906DC
:1043A000089500240A9412161306140605060895AB
:1043B000092E0394000C11F4882352F0BB0F40F433
:1043C000BF2B11F460FF04C06F5F7F4F8F4F9F4F73
:1043D000089597FB072E16F4009407D077FD09D0B7
:1043E0000E94032207FC05D03EF4909581959F4FD3
:1043F0000895709561957F4F0895EE0FFF1F05900A
:10440000F491E02D0994AA1BBB1B51E107C0AA1F20
:10441000BB1FA617B70710F0A61BB70B881F991F65
:104420005A95A9F780959095BC01CD010895F99909
:10443000FECF92BD81BDF89A992780B50895262FA9
:10444000F999FECF92BD81BDF89A019700B402168A
:1044500039F01FBA20BD0FB6F894FA9AF99A0FBE38
:064460000895F894FFCF5F
:10446600590718085C075D075E0742099D097A0926
:10447600450946090101CF022808140A321E404D9B
:104486001B39A8025B02400207029A01B301CC0164
:0C449600E5010102030405060708090007
:106800008800EA44E944E244040005000600070069
:10681000080009000A000B000C000D000E000F001C
:1068200010001100120013001400150016001700CC
:10683000180019001A001B001C001D001E001F007C
:10684000200021002200230024002500260027002C
:10685000280035002A002B002C002D002E003000CF
:10686000300031003200330034003500360037008C
:10687000380029004F00E2002E002D0031004600B4
:10688000028D3D002F0034004400450046004700C3
:1068900048004C004A004B002C004D004E004F00B9
:1068A000500051005200530054005500560057004C
:1068B000580059005A005B005C005D005E005F00FC
:1068C000600061006200630064006500850067008D
:1068D000F450F550F650F750F850F950FA506F0058
:1068E0007000710072007300890087008A008B00BD
:1068F000E000E1005000E300E400E500E600E7000E
:1069000001000100010001005000010001004F00E2
:10691000010001000100010060005C005D005E00FC
:106920001E0001006100550001000100510001003E
:106930005F00010052000100010001003A003B002D
:106940003C003D003E003F0040004100420043004B
:106950005800010044000100010001000100450051
:106960000100010001005700010001001F005B0051
:10697000540029000100010001004B004E0062009C
:10698000018D0100520051000100010001000100D1
:106990000100E240B640E940CD40B540EA40010088
:1069A00001000100010001000100010001000100DF
:1069B00001000100010001000100010001000100CF
:1069C00001000100010001000100010001000100BF
:1069D00001000100010001000100010001000100AF
:1069E000010001000100010001000100010001009F
:1069F00001000100010001000100010063005800D6
:106A0000100101000100010001000100010001006E
:106A1000010001000100010001000100010001006E
:106A2000010001000100010001000100010001005E
:106A3000010001000100010001000100010001004E
:106A4000010001000100010001000100010001003E
:106A5000010001000100010001000100010001002E
:106A6000010001000100010001000100010001001E
:106A7000010001000100010001000100010001000E
:106A800001000100010001000100010001000100FE
:106A900001000100010001000100010001000100EE
:106AA00001000100010001000100010001000100DE
:106AB00001000100010001000100010001000100CE
:106AC00001000100010001000100010001000100BE
:106AD00001000100010001000100010001000100AE
:106AE000010001000100010001000100010001009E
:106AF000010001000100010001000100010001008E
:106B0000110201000100010001000100010001006B
:106B1000010001000100010001000100010001006D
:106B2000010001000100010001000100010001005D
:106B3000010001000100010001000100010001004D
:106B4000010001000100010001000100010001003D
:106B5000010001000100010001000100010001002D
:106B6000010001000100010001000100010001001D
:106B7000010001000100010001000100010001000D
:106B800001000100010001000100010001000100FD
:106B900001000100010001000100010001000100ED
:106BA00001000100010001000100010001000100DD
:106BB00001000100010001000100010001000100CD
:106BC00001000100010001000100010001000100BD
:106BD00001000100010001000100010001000100AD
:106BE000010001000100010001000100010001009D
:106BF000010001000100010001000100010001008D
:106C0000120001000100010001000100010001006B
:106C1000010001000100010001000100010001006C
:106C2000010001000100010001000100010001005C
:106C3000010001000100010001000100010001004C
:106C4000010001000100010001000100010001003C
:106C5000010001000100010001000100010001002C
:106C6000010001000100010001000100010001001C
:106C7000010001000100010001000100010001000C
:106C800001000100010001000100010001000100FC
:106C900001000100010001000100010001000100EC
:106CA00001000100010001000100010001000100DC
:106CB00001000100010001000100010001000100CC
:106CC00001000100010001000100010001000100BC
:106CD00001000100010001000100010001000100AC
:106CE000010001000100010001000100010001009C
:106CF000010001000100010001000100010001008C
:106D0000000001000100010001000100010001007C
:106D1000010001000100010001000100010001006B
:106D2000010001000100010001000100010001005B
:106D3000010001000100010001000100010001004B
:106D4000010001000100010001000100010001003B
:00000001FF
